:020000020000FC
:1000000008ED04BF01E00093610003D05AD02CD06A
:10001000FDCF00912004046000932004009124048B
:1000200004600093240406E410E100930808109390
:10003000090800E40093060808950091040800727E
:1000400005FFFBCF082F009302080895E2E7F0E0D8
:100050008591803011F0F1DFFBCF089585918030DC
:1000600011F0EBDFFBCF0895F1DFE0E8F0E0F0DF27
:10007000089554454D50455241545552450A0D007E
:10008000200A0D0041540A0D000041542B524F4CE0
:1000900045300D0A000041542B555549444646450C
:1000A000300D0A0041542B43484152464645310D1C
:1000B0000A0041542B4E414D4553414A4545560D8A
:1000C0000A00E4E8F0E0CADF40D0EAE8F0E0C6DF8A
:1000D0003CD0E6E9F0E0C2DF38D0E4EAF0E0BEDF91
:1000E00034D0E2EBF0E0BADF30D0089503D02197AE
:1000F000E9F70895CF93DF93CFEBD9E02197F1F79C
:10010000DF91CF91089500000000000008950000E5
:100110000000000000000895000000000000000042
:10012000000000001197C1F70895C1E0D0E0DEDFC4
:100130000895CAE0D0E0DADF0895C2E3D0E0D6DF68
:100140000895C4E6D0E0D2DF0895C4EFD1E0CEDF59
:100150000895CEEED2E0CADF0895C8EED3E0C6DF40
:02016000089500
:00000001FF
